{
  "address": "0x7aBBDFe769921f09aB6040221Dea81e4539f5C92",
  "abi": [
    {
      "inputs": [
        {
          "internalType": "address",
          "name": "_rwaNftAddress",
          "type": "address"
        }
      ],
      "stateMutability": "nonpayable",
      "type": "constructor"
    },
    {
      "inputs": [],
      "name": "AccessControlBadConfirmation",
      "type": "error"
    },
    {
      "inputs": [
        {
          "internalType": "address",
          "name": "account",
          "type": "address"
        },
        {
          "internalType": "bytes32",
          "name": "neededRole",
          "type": "bytes32"
        }
      ],
      "name": "AccessControlUnauthorizedAccount",
      "type": "error"
    },
    {
      "anonymous": false,
      "inputs": [
        {
          "indexed": false,
          "internalType": "uint256",
          "name": "proposalId",
          "type": "uint256"
        },
        {
          "indexed": true,
          "internalType": "address",
          "name": "auctionContract",
          "type": "address"
        }
      ],
      "name": "AuctionFinalized",
      "type": "event"
    },
    {
      "anonymous": false,
      "inputs": [
        {
          "indexed": false,
          "internalType": "uint256",
          "name": "proposalId",
          "type": "uint256"
        },
        {
          "indexed": true,
          "internalType": "address",
          "name": "auctionContract",
          "type": "address"
        },
        {
          "indexed": false,
          "internalType": "uint256",
          "name": "tokenId",
          "type": "uint256"
        }
      ],
      "name": "AuctionLaunched",
      "type": "event"
    },
    {
      "anonymous": false,
      "inputs": [
        {
          "indexed": false,
          "internalType": "uint256",
          "name": "proposalId",
          "type": "uint256"
        }
      ],
      "name": "ProposalRejected",
      "type": "event"
    },
    {
      "anonymous": false,
      "inputs": [
        {
          "indexed": false,
          "internalType": "uint256",
          "name": "proposalId",
          "type": "uint256"
        },
        {
          "indexed": true,
          "internalType": "address",
          "name": "proposer",
          "type": "address"
        }
      ],
      "name": "ProposalSubmitted",
      "type": "event"
    },
    {
      "anonymous": false,
      "inputs": [
        {
          "indexed": true,
          "internalType": "bytes32",
          "name": "role",
          "type": "bytes32"
        },
        {
          "indexed": true,
          "internalType": "bytes32",
          "name": "previousAdminRole",
          "type": "bytes32"
        },
        {
          "indexed": true,
          "internalType": "bytes32",
          "name": "newAdminRole",
          "type": "bytes32"
        }
      ],
      "name": "RoleAdminChanged",
      "type": "event"
    },
    {
      "anonymous": false,
      "inputs": [
        {
          "indexed": true,
          "internalType": "bytes32",
          "name": "role",
          "type": "bytes32"
        },
        {
          "indexed": true,
          "internalType": "address",
          "name": "account",
          "type": "address"
        },
        {
          "indexed": true,
          "internalType": "address",
          "name": "sender",
          "type": "address"
        }
      ],
      "name": "RoleGranted",
      "type": "event"
    },
    {
      "anonymous": false,
      "inputs": [
        {
          "indexed": true,
          "internalType": "bytes32",
          "name": "role",
          "type": "bytes32"
        },
        {
          "indexed": true,
          "internalType": "address",
          "name": "account",
          "type": "address"
        },
        {
          "indexed": true,
          "internalType": "address",
          "name": "sender",
          "type": "address"
        }
      ],
      "name": "RoleRevoked",
      "type": "event"
    },
    {
      "inputs": [],
      "name": "DEFAULT_ADMIN_ROLE",
      "outputs": [
        {
          "internalType": "bytes32",
          "name": "",
          "type": "bytes32"
        }
      ],
      "stateMutability": "view",
      "type": "function"
    },
    {
      "inputs": [],
      "name": "REVIEWER_ROLE",
      "outputs": [
        {
          "internalType": "bytes32",
          "name": "",
          "type": "bytes32"
        }
      ],
      "stateMutability": "view",
      "type": "function"
    },
    {
      "inputs": [
        {
          "internalType": "address",
          "name": "_reviewerAddress",
          "type": "address"
        }
      ],
      "name": "addReviewer",
      "outputs": [],
      "stateMutability": "nonpayable",
      "type": "function"
    },
    {
      "inputs": [
        {
          "internalType": "uint256",
          "name": "_proposalId",
          "type": "uint256"
        }
      ],
      "name": "finalizeAuction",
      "outputs": [],
      "stateMutability": "nonpayable",
      "type": "function"
    },
    {
      "inputs": [
        {
          "internalType": "uint256",
          "name": "_proposalId",
          "type": "uint256"
        }
      ],
      "name": "getProposal",
      "outputs": [
        {
          "components": [
            {
              "internalType": "address",
              "name": "proposer",
              "type": "address"
            },
            {
              "internalType": "string",
              "name": "metadataURI",
              "type": "string"
            },
            {
              "internalType": "uint256",
              "name": "startingBid",
              "type": "uint256"
            },
            {
              "internalType": "uint256",
              "name": "durationSeconds",
              "type": "uint256"
            },
            {
              "internalType": "enum AuctionFactory.ProposalStatus",
              "name": "status",
              "type": "uint8"
            },
            {
              "internalType": "address",
              "name": "deployedAuctionAddress",
              "type": "address"
            }
          ],
          "internalType": "struct AuctionFactory.Proposal",
          "name": "",
          "type": "tuple"
        }
      ],
      "stateMutability": "view",
      "type": "function"
    },
    {
      "inputs": [],
      "name": "getProposalsCount",
      "outputs": [
        {
          "internalType": "uint256",
          "name": "",
          "type": "uint256"
        }
      ],
      "stateMutability": "view",
      "type": "function"
    },
    {
      "inputs": [
        {
          "internalType": "bytes32",
          "name": "role",
          "type": "bytes32"
        }
      ],
      "name": "getRoleAdmin",
      "outputs": [
        {
          "internalType": "bytes32",
          "name": "",
          "type": "bytes32"
        }
      ],
      "stateMutability": "view",
      "type": "function"
    },
    {
      "inputs": [
        {
          "internalType": "bytes32",
          "name": "role",
          "type": "bytes32"
        },
        {
          "internalType": "address",
          "name": "account",
          "type": "address"
        }
      ],
      "name": "grantRole",
      "outputs": [],
      "stateMutability": "nonpayable",
      "type": "function"
    },
    {
      "inputs": [
        {
          "internalType": "bytes32",
          "name": "role",
          "type": "bytes32"
        },
        {
          "internalType": "address",
          "name": "account",
          "type": "address"
        }
      ],
      "name": "hasRole",
      "outputs": [
        {
          "internalType": "bool",
          "name": "",
          "type": "bool"
        }
      ],
      "stateMutability": "view",
      "type": "function"
    },
    {
      "inputs": [
        {
          "internalType": "uint256",
          "name": "",
          "type": "uint256"
        }
      ],
      "name": "proposals",
      "outputs": [
        {
          "internalType": "address",
          "name": "proposer",
          "type": "address"
        },
        {
          "internalType": "string",
          "name": "metadataURI",
          "type": "string"
        },
        {
          "internalType": "uint256",
          "name": "startingBid",
          "type": "uint256"
        },
        {
          "internalType": "uint256",
          "name": "durationSeconds",
          "type": "uint256"
        },
        {
          "internalType": "enum AuctionFactory.ProposalStatus",
          "name": "status",
          "type": "uint8"
        },
        {
          "internalType": "address",
          "name": "deployedAuctionAddress",
          "type": "address"
        }
      ],
      "stateMutability": "view",
      "type": "function"
    },
    {
      "inputs": [
        {
          "internalType": "uint256",
          "name": "_proposalId",
          "type": "uint256"
        }
      ],
      "name": "rejectProposal",
      "outputs": [],
      "stateMutability": "nonpayable",
      "type": "function"
    },
    {
      "inputs": [
        {
          "internalType": "bytes32",
          "name": "role",
          "type": "bytes32"
        },
        {
          "internalType": "address",
          "name": "callerConfirmation",
          "type": "address"
        }
      ],
      "name": "renounceRole",
      "outputs": [],
      "stateMutability": "nonpayable",
      "type": "function"
    },
    {
      "inputs": [
        {
          "internalType": "uint256",
          "name": "_proposalId",
          "type": "uint256"
        },
        {
          "internalType": "address",
          "name": "_idrxTokenAddress",
          "type": "address"
        },
        {
          "internalType": "uint256",
          "name": "_feePercent",
          "type": "uint256"
        }
      ],
      "name": "reviewAndLaunchAuction",
      "outputs": [],
      "stateMutability": "nonpayable",
      "type": "function"
    },
    {
      "inputs": [
        {
          "internalType": "address",
          "name": "_reviewerAddress",
          "type": "address"
        }
      ],
      "name": "revokeReviewer",
      "outputs": [],
      "stateMutability": "nonpayable",
      "type": "function"
    },
    {
      "inputs": [
        {
          "internalType": "bytes32",
          "name": "role",
          "type": "bytes32"
        },
        {
          "internalType": "address",
          "name": "account",
          "type": "address"
        }
      ],
      "name": "revokeRole",
      "outputs": [],
      "stateMutability": "nonpayable",
      "type": "function"
    },
    {
      "inputs": [],
      "name": "rwaNftContract",
      "outputs": [
        {
          "internalType": "contract RwaNft",
          "name": "",
          "type": "address"
        }
      ],
      "stateMutability": "view",
      "type": "function"
    },
    {
      "inputs": [],
      "name": "setupPermissions",
      "outputs": [],
      "stateMutability": "nonpayable",
      "type": "function"
    },
    {
      "inputs": [
        {
          "internalType": "string",
          "name": "_metadataURI",
          "type": "string"
        },
        {
          "internalType": "uint256",
          "name": "_startingBid",
          "type": "uint256"
        },
        {
          "internalType": "uint256",
          "name": "_durationSeconds",
          "type": "uint256"
        }
      ],
      "name": "submitProposal",
      "outputs": [],
      "stateMutability": "nonpayable",
      "type": "function"
    },
    {
      "inputs": [
        {
          "internalType": "bytes4",
          "name": "interfaceId",
          "type": "bytes4"
        }
      ],
      "name": "supportsInterface",
      "outputs": [
        {
          "internalType": "bool",
          "name": "",
          "type": "bool"
        }
      ],
      "stateMutability": "view",
      "type": "function"
    }
  ],
  "transactionHash": "0x9ea922c4ef5990a166f412cb991edddcfa70becbcf7ed7749ce421df562e9b78",
  "args": [
    "0x532EEBed813ed3a3822DA14983AA209F8c783A14"
  ],
  "numDeployments": 1,
  "solcInputHash": "f48624f4368a544e8c5be3770294d6d1",
  "bytecode": "0x60a06040523480156200001157600080fd5b50604051620027fd380380620027fd833981016040819052620000349162000130565b6200004160003362000081565b506200006e7fc10c77be35aff266144ed64c26a1fa104bae2f284ae99ac4a34203454704a1853362000081565b506001600160a01b031660805262000162565b6000828152602081815260408083206001600160a01b038516845290915281205460ff1662000126576000838152602081815260408083206001600160a01b03861684529091529020805460ff19166001179055620000dd3390565b6001600160a01b0316826001600160a01b0316847f2f8788117e7eff1d82e926ec794901d17c78024a50270940304540a733656f0d60405160405180910390a45060016200012a565b5060005b92915050565b6000602082840312156200014357600080fd5b81516001600160a01b03811681146200015b57600080fd5b9392505050565b6080516126636200019a600039600081816102b8015281816105840152818161061a015281816106f30152610c4f01526126636000f3fe60806040523480156200001157600080fd5b5060043610620001395760003560e01c806398e527d311620000bb578063bd2a91ee116200007a578063bd2a91ee14620002b2578063c7f758a814620002f3578063d547741f1462000319578063dac2d6e21462000330578063e8083863146200033a57600080fd5b806398e527d3146200025b57806398f902fe1462000264578063a217fddf146200027b578063a6b39cdd1462000284578063bc28d878146200029b57600080fd5b806336568abe116200010857806336568abe14620001e85780633b129a5614620001ff5780636ee67348146200021657806373a82b5f146200022d57806391d14854146200024457600080fd5b8063013cf08b146200013e57806301ffc9a71462000172578063248a9ca3146200019a5780632f2ff15d14620001cf575b600080fd5b620001556200014f3660046200103f565b62000351565b6040516200016996959493929190620010da565b60405180910390f35b62000189620001833660046200112f565b62000443565b604051901515815260200162000169565b620001c0620001ab3660046200103f565b60009081526020819052604090206001015490565b60405190815260200162000169565b620001e6620001e03660046200117f565b62000456565b005b620001e6620001f93660046200117f565b62000485565b620001c06000805160206200260e83398151915281565b620001e662000227366004620011ae565b620004c0565b620001e66200023e366004620011e6565b620007c0565b62000189620002553660046200117f565b620007ec565b600154620001c0565b620001e662000275366004620011e6565b62000815565b620001c0600081565b620001e66200029536600462001204565b6200083d565b620001e6620002ac3660046200103f565b620009c1565b620002da7f000000000000000000000000000000000000000000000000000000000000000081565b6040516001600160a01b03909116815260200162000169565b6200030a620003043660046200103f565b62000aae565b60405162000169919062001288565b620001e66200032a3660046200117f565b62000c04565b620001e662000c2d565b620001e66200034b3660046200103f565b62000cb8565b600181815481106200036257600080fd5b6000918252602090912060059091020180546001820180546001600160a01b039092169350906200039390620012fa565b80601f0160208091040260200160405190810160405280929190818152602001828054620003c190620012fa565b8015620004125780601f10620003e65761010080835404028352916020019162000412565b820191906000526020600020905b815481529060010190602001808311620003f457829003601f168201915b50505050600283015460038401546004909401549293909290915060ff81169061010090046001600160a01b031686565b6000620004508262000e54565b92915050565b600082815260208190526040902060010154620004738162000e8b565b6200047f838362000e9a565b50505050565b6001600160a01b0381163314620004af5760405163334bd91960e11b815260040160405180910390fd5b620004bb828262000f32565b505050565b6000805160206200260e833981519152620004db8162000e8b565b600060018581548110620004f357620004f362001336565b6000918252602082206005909102019150600482015460ff166003811115620005205762000520620010a1565b146200056a5760405162461bcd60e51b815260206004820152601460248201527350726f706f73616c206e6f742070656e64696e6760601b60448201526064015b60405180910390fd5b604051638acc3f4b60e01b81526000906001600160a01b037f00000000000000000000000000000000000000000000000000000000000000001690638acc3f4b90620005c090309060018701906004016200134c565b6020604051808303816000875af1158015620005e0573d6000803e3d6000fd5b505050506040513d601f19601f82011682018060405250810190620006069190620013ef565b6002830154600384015484549293506000927f00000000000000000000000000000000000000000000000000000000000000009285928a928a906001600160a01b03163330604051620006599062000fde565b6001600160a01b03998a168152602081019890985295881660408801526060870194909452608086019290925260a0850152841660c0840152831660e083015290911661010082015261012001604051809103906000f080158015620006c3573d6000803e3d6000fd5b506040516323b872dd60e01b81523060048201526001600160a01b038083166024830152604482018590529192507f0000000000000000000000000000000000000000000000000000000000000000909116906323b872dd90606401600060405180830381600087803b1580156200073a57600080fd5b505af11580156200074f573d6000803e3d6000fd5b505050506004830180546001600160a01b03831661010081026001600160a81b03199092169190911760021790915560408051898152602081018590527ffbc220c37316121274c1506817149739d76e8fe10aa25eaa170c5de7d00e05cc910160405180910390a250505050505050565b6000620007cd8162000e8b565b620007e86000805160206200260e8339815191528362000456565b5050565b6000918252602082815260408084206001600160a01b0393909316845291905290205460ff1690565b6000620008228162000e8b565b620007e86000805160206200260e8339815191528362000c04565b60016040518060c00160405280336001600160a01b0316815260200186868080601f0160208091040260200160405190810160405280939291908181526020018383808284376000920182905250938552505050602082018690526040820185905260609091019081526000602091820181905283546001808201865594825290829020835160059092020180546001600160a01b0319166001600160a01b03909216919091178155908201519192909190820190620008fe908262001471565b50604082015181600201556060820151816003015560808201518160040160006101000a81548160ff02191690836003811115620009405762000940620010a1565b021790555060a09190910151600490910180546001600160a01b0390921661010002610100600160a81b03199092169190911790556001805433917f11641d364e926d2bf231c2d36f2a9271390042d717ea334a3e7c983c27a1239191620009a991906200153e565b6040519081526020015b60405180910390a250505050565b6000805160206200260e833981519152620009dc8162000e8b565b600060018381548110620009f457620009f462001336565b6000918252602082206005909102019150600482015460ff16600381111562000a215762000a21620010a1565b1462000a675760405162461bcd60e51b815260206004820152601460248201527350726f706f73616c206e6f742070656e64696e6760601b604482015260640162000561565b60048101805460ff191660011790556040518381527fd92fba445edb3153b571e6df782d7a66fd0ce668519273670820ee3a86da0ef49060200160405180910390a1505050565b62000ab862000fec565b6001828154811062000ace5762000ace62001336565b60009182526020918290206040805160c0810190915260059092020180546001600160a01b03168252600181018054929391929184019162000b1090620012fa565b80601f016020809104026020016040519081016040528092919081815260200182805462000b3e90620012fa565b801562000b8f5780601f1062000b635761010080835404028352916020019162000b8f565b820191906000526020600020905b81548152906001019060200180831162000b7157829003601f168201915b5050509183525050600282015460208201526003808301546040830152600483015460609092019160ff169081111562000bcd5762000bcd620010a1565b600381111562000be15762000be1620010a1565b81526004919091015461010090046001600160a01b031660209091015292915050565b60008281526020819052604090206001015462000c218162000e8b565b6200047f838362000f32565b600062000c3a8162000e8b565b604051633dd1eb6160e01b81523060048201527f00000000000000000000000000000000000000000000000000000000000000006001600160a01b031690633dd1eb6190602401600060405180830381600087803b15801562000c9c57600080fd5b505af115801562000cb1573d6000803e3d6000fd5b5050505050565b600062000cc58162000e8b565b60006001838154811062000cdd5762000cdd62001336565b6000918252602090912060059091020190506002600482015460ff16600381111562000d0d5762000d0d620010a1565b1462000d525760405162461bcd60e51b815260206004820152601360248201527241756374696f6e206973206e6f74206c69766560681b604482015260640162000561565b600481015461010090046001600160a01b03168062000db45760405162461bcd60e51b815260206004820152601a60248201527f41756374696f6e20636f6e7472616374206e6f7420666f756e64000000000000604482015260640162000561565b806001600160a01b031663fe67a54b6040518163ffffffff1660e01b8152600401600060405180830381600087803b15801562000df057600080fd5b505af115801562000e05573d6000803e3d6000fd5b5050505060048201805460ff191660031790556040518481526001600160a01b038216907f95b73f79c6d7b09d4dd9a323589aec50a424621f53a70ece1cc21aa75554b51990602001620009b3565b60006001600160e01b03198216637965db0b60e01b14806200045057506301ffc9a760e01b6001600160e01b031983161462000450565b62000e97813362000fa1565b50565b600062000ea88383620007ec565b62000f29576000838152602081815260408083206001600160a01b03861684529091529020805460ff1916600117905562000ee03390565b6001600160a01b0316826001600160a01b0316847f2f8788117e7eff1d82e926ec794901d17c78024a50270940304540a733656f0d60405160405180910390a450600162000450565b50600062000450565b600062000f408383620007ec565b1562000f29576000838152602081815260408083206001600160a01b0386168085529252808320805460ff1916905551339286917ff6391f5c32d9c69d2a47ea670b442974b53935d1edc7fd64eb21e047a839171b9190a450600162000450565b62000fad8282620007ec565b620007e85760405163e2517d3f60e01b81526001600160a01b03821660048201526024810183905260440162000561565b6110ad806200156183390190565b6040518060c0016040528060006001600160a01b0316815260200160608152602001600081526020016000815260200160006003811115620010325762001032620010a1565b8152600060209091015290565b6000602082840312156200105257600080fd5b5035919050565b6000815180845260005b81811015620010815760208185018101518683018201520162001063565b506000602082860101526020601f19601f83011685010191505092915050565b634e487b7160e01b600052602160045260246000fd5b60048110620010d657634e487b7160e01b600052602160045260246000fd5b9052565b600060018060a01b03808916835260c06020840152620010fe60c084018962001059565b91508660408401528560608401526200111b6080840186620010b7565b80841660a084015250979650505050505050565b6000602082840312156200114257600080fd5b81356001600160e01b0319811681146200115b57600080fd5b9392505050565b80356001600160a01b03811681146200117a57600080fd5b919050565b600080604083850312156200119357600080fd5b82359150620011a56020840162001162565b90509250929050565b600080600060608486031215620011c457600080fd5b83359250620011d66020850162001162565b9150604084013590509250925092565b600060208284031215620011f957600080fd5b6200115b8262001162565b600080600080606085870312156200121b57600080fd5b843567ffffffffffffffff808211156200123457600080fd5b818701915087601f8301126200124957600080fd5b8135818111156200125957600080fd5b8860208285010111156200126c57600080fd5b6020928301999098509187013596604001359550909350505050565b60208152600060018060a01b03808451166020840152602084015160c06040850152620012b960e085018262001059565b905060408501516060850152606085015160808501526080850151620012e360a0860182620010b7565b5060a094909401511660c092909201919091525090565b600181811c908216806200130f57607f821691505b6020821081036200133057634e487b7160e01b600052602260045260246000fd5b50919050565b634e487b7160e01b600052603260045260246000fd5b60018060a01b038316815260006020604081840152600084546200137081620012fa565b8060408701526060600180841660008114620013955760018114620013b057620013e0565b60ff1985168984015283151560051b890183019550620013e0565b896000528660002060005b85811015620013d85781548b8201860152908301908801620013bb565b8a0184019650505b50939998505050505050505050565b6000602082840312156200140257600080fd5b5051919050565b634e487b7160e01b600052604160045260246000fd5b601f821115620004bb57600081815260208120601f850160051c81016020861015620014485750805b601f850160051c820191505b81811015620014695782815560010162001454565b505050505050565b815167ffffffffffffffff8111156200148e576200148e62001409565b620014a6816200149f8454620012fa565b846200141f565b602080601f831160018114620014de5760008415620014c55750858301515b600019600386901b1c1916600185901b17855562001469565b600085815260208120601f198616915b828110156200150f57888601518255948401946001909101908401620014ee565b50858210156200152e5787850151600019600388901b60f8161c191681555b5050505050600190811b01905550565b818103818111156200045057634e487b7160e01b600052601160045260246000fdfe6101806040523480156200001257600080fd5b50604051620010ad380380620010ad833981016040819052620000359162000133565b806001600160a01b0381166200006557604051631e4fbdf760e01b81526000600482015260240160405180910390fd5b6200007081620000c6565b506001600160a01b03808a1660805260a0899052871660c0526101208690526200009b8542620001ca565b6101405250610160929092526001600160a01b0390811660e052166101005250620001f29350505050565b600080546001600160a01b038381166001600160a01b0319831681178455604051919092169283917f8be0079c531659141344cd1fd0a4f28419497f9722a3daafe3b4186f6b6457e09190a35050565b80516001600160a01b03811681146200012e57600080fd5b919050565b60008060008060008060008060006101208a8c0312156200015357600080fd5b6200015e8a62000116565b985060208a015197506200017560408b0162000116565b965060608a0151955060808a0151945060a08a015193506200019a60c08b0162000116565b9250620001aa60e08b0162000116565b9150620001bb6101008b0162000116565b90509295985092959850929598565b80820180821115620001ec57634e487b7160e01b600052601160045260246000fd5b92915050565b60805160a05160c05160e05161010051610120516101405161016051610dec620002c16000396000818161024901526108b3015260008181610181015281816104a601526107cc01526000818161029401526105a40152600081816102eb0152610912015260008181610120015281816109cb0152610b800152600081816102c4015281816103ba015281816106830152818161094401526109fa01526000818161022201528181610a900152610ba80152600081816101d301528181610ab60152610bce0152610dec6000f3fe608060405234801561001057600080fd5b50600436106101165760003560e01c80638c639a85116100a2578063d57bde7911610071578063d57bde79146102b6578063d6bc7c63146102bf578063e20fc118146102e6578063f2fde38b1461030d578063fe67a54b1461032057600080fd5b80638c639a85146102445780638da5cb5b1461026b57806391f901571461027c578063b9fdd5691461028f57600080fd5b8063454a2ab3116100e9578063454a2ab3146101bb57806347ccca02146101ce57806362ea82db146101f5578063715018a6146102155780637e8305741461021d57600080fd5b806308551a531461011b57806312fa6feb1461015f5780633197cbb61461017c5780633ccfd60b146101b1575b600080fd5b6101427f000000000000000000000000000000000000000000000000000000000000000081565b6040516001600160a01b0390911681526020015b60405180910390f35b60035461016c9060ff1681565b6040519015158152602001610156565b6101a37f000000000000000000000000000000000000000000000000000000000000000081565b604051908152602001610156565b6101b9610328565b005b6101b96101c9366004610ce3565b6104a4565b6101427f000000000000000000000000000000000000000000000000000000000000000081565b6101a3610203366004610cfc565b60046020526000908152604090205481565b6101b9610770565b6101a37f000000000000000000000000000000000000000000000000000000000000000081565b6101a37f000000000000000000000000000000000000000000000000000000000000000081565b6000546001600160a01b0316610142565b600154610142906001600160a01b031681565b6101a37f000000000000000000000000000000000000000000000000000000000000000081565b6101a360025481565b6101427f000000000000000000000000000000000000000000000000000000000000000081565b6101427f000000000000000000000000000000000000000000000000000000000000000081565b6101b961031b366004610cfc565b610784565b6101b96107c2565b33600090815260046020526040902054806103815760405162461bcd60e51b81526020600482015260146024820152734e6f2066756e647320746f20776974686472617760601b60448201526064015b60405180910390fd5b3360008181526004602081905260408083208390555163a9059cbb60e01b81529081019290925260248201839052906001600160a01b037f0000000000000000000000000000000000000000000000000000000000000000169063a9059cbb906044016020604051808303816000875af1158015610403573d6000803e3d6000fd5b505050506040513d601f19601f820116820180604052508101906104279190610d2c565b90508061046a5760405162461bcd60e51b815260206004820152601160248201527015da5d1a191c985dd85b0819985a5b1959607a1b6044820152606401610378565b60405182815233907f7fcf532c15f0a6db0bd6d0e038bea71d30d808c7d98cb3bf7268a95bf5081b65906020015b60405180910390a25050565b7f0000000000000000000000000000000000000000000000000000000000000000421061050b5760405162461bcd60e51b815260206004820152601560248201527441756374696f6e206973206e6f742061637469766560581b6044820152606401610378565b60035460ff16156105525760405162461bcd60e51b8152602060048201526011602482015270105d58dd1a5bdb881a185cc8195b991959607a1b6044820152606401610378565b60025481116105985760405162461bcd60e51b81526020600482015260126024820152712134b21036bab9ba103132903434b3b432b960711b6044820152606401610378565b600254600003610612577f00000000000000000000000000000000000000000000000000000000000000008110156106125760405162461bcd60e51b815260206004820152601a60248201527f426964206d757374206d656574207374617274696e67206269640000000000006044820152606401610378565b6001546001600160a01b031615610642576002546001546001600160a01b03166000908152600460205260409020555b600180546001600160a01b0319163390811790915560028290556040516323b872dd60e01b81526004810191909152306024820152604481018290526000907f00000000000000000000000000000000000000000000000000000000000000006001600160a01b0316906323b872dd906064016020604051808303816000875af11580156106d4573d6000803e3d6000fd5b505050506040513d601f19601f820116820180604052508101906106f89190610d2c565b90508061073e5760405162461bcd60e51b815260206004820152601460248201527312511496081d1c985b9cd9995c8819985a5b195960621b6044820152606401610378565b60405182815233907fe684a55f31b79eca403df938249029212a5925ec6be8012e099b45bc1019e5d290602001610498565b610778610c66565b6107826000610c93565b565b61078c610c66565b6001600160a01b0381166107b657604051631e4fbdf760e01b815260006004820152602401610378565b6107bf81610c93565b50565b6107ca610c66565b7f000000000000000000000000000000000000000000000000000000000000000042101561083a5760405162461bcd60e51b815260206004820152601960248201527f41756374696f6e20686173206e6f742079657420656e646564000000000000006044820152606401610378565b60035460ff161561088d5760405162461bcd60e51b815260206004820152601960248201527f41756374696f6e2068617320616c726561647920656e646564000000000000006044820152606401610378565b6003805460ff19166001908117909155546001600160a01b031615610b635760006127107f00000000000000000000000000000000000000000000000000000000000000006002546108df9190610d64565b6108e99190610d81565b90506000816002546108fb9190610da3565b60405163a9059cbb60e01b81526001600160a01b037f000000000000000000000000000000000000000000000000000000000000000081166004830152602482018590529192507f00000000000000000000000000000000000000000000000000000000000000009091169063a9059cbb906044016020604051808303816000875af115801561098f573d6000803e3d6000fd5b505050506040513d601f19601f820116820180604052508101906109b39190610d2c565b5060405163a9059cbb60e01b81526001600160a01b037f000000000000000000000000000000000000000000000000000000000000000081166004830152602482018390527f0000000000000000000000000000000000000000000000000000000000000000169063a9059cbb906044016020604051808303816000875af1158015610a43573d6000803e3d6000fd5b505050506040513d601f19601f82011682018060405250810190610a679190610d2c565b506001546040516323b872dd60e01b81523060048201526001600160a01b0391821660248201527f000000000000000000000000000000000000000000000000000000000000000060448201527f0000000000000000000000000000000000000000000000000000000000000000909116906323b872dd90606401600060405180830381600087803b158015610afc57600080fd5b505af1158015610b10573d6000803e3d6000fd5b5050600154600254604080516001600160a01b03909316835260208301919091527fdaec4582d5d9595688c8c98545fdd1c696d41c6aeaeb636737e84ed2f5c00eda935001905060405180910390a15050565b6040516323b872dd60e01b81523060048201526001600160a01b037f0000000000000000000000000000000000000000000000000000000000000000811660248301527f000000000000000000000000000000000000000000000000000000000000000060448301527f000000000000000000000000000000000000000000000000000000000000000016906323b872dd90606401600060405180830381600087803b158015610c1257600080fd5b505af1158015610c26573d6000803e3d6000fd5b505060408051600080825260208201527fdaec4582d5d9595688c8c98545fdd1c696d41c6aeaeb636737e84ed2f5c00eda935001905060405180910390a1565b6000546001600160a01b031633146107825760405163118cdaa760e01b8152336004820152602401610378565b600080546001600160a01b038381166001600160a01b0319831681178455604051919092169283917f8be0079c531659141344cd1fd0a4f28419497f9722a3daafe3b4186f6b6457e09190a35050565b600060208284031215610cf557600080fd5b5035919050565b600060208284031215610d0e57600080fd5b81356001600160a01b0381168114610d2557600080fd5b9392505050565b600060208284031215610d3e57600080fd5b81518015158114610d2557600080fd5b634e487b7160e01b600052601160045260246000fd5b8082028115828204841417610d7b57610d7b610d4e565b92915050565b600082610d9e57634e487b7160e01b600052601260045260246000fd5b500490565b81810381811115610d7b57610d7b610d4e56fea264697066735822122041d57c2a20b257450bb4547be4147ef237914c2ed92a6e688b0d20934f59ce2364736f6c63430008140033c10c77be35aff266144ed64c26a1fa104bae2f284ae99ac4a34203454704a185a26469706673582212206e6a911288b1a554efef9782a6d733fa3790deb3420b2651f6d803309f118efd64736f6c63430008140033",
  "devdoc": {
    "errors": {
      "AccessControlBadConfirmation()": [
        {
          "details": "The caller of a function is not the expected one. NOTE: Don't confuse with {AccessControlUnauthorizedAccount}."
        }
      ],
      "AccessControlUnauthorizedAccount(address,bytes32)": [
        {
          "details": "The `account` is missing a role."
        }
      ]
    },
    "events": {
      "RoleAdminChanged(bytes32,bytes32,bytes32)": {
        "details": "Emitted when `newAdminRole` is set as ``role``'s admin role, replacing `previousAdminRole` `DEFAULT_ADMIN_ROLE` is the starting admin for all roles, despite {RoleAdminChanged} not being emitted signaling this."
      },
      "RoleGranted(bytes32,address,address)": {
        "details": "Emitted when `account` is granted `role`. `sender` is the account that originated the contract call, an admin role bearer except when using {AccessControl-_setupRole}."
      },
      "RoleRevoked(bytes32,address,address)": {
        "details": "Emitted when `account` is revoked `role`. `sender` is the account that originated the contract call:   - if using `revokeRole`, it is the admin role bearer   - if using `renounceRole`, it is the role bearer (i.e. `account`)"
      }
    },
    "kind": "dev",
    "methods": {
      "getRoleAdmin(bytes32)": {
        "details": "Returns the admin role that controls `role`. See {grantRole} and {revokeRole}. To change a role's admin, use {_setRoleAdmin}."
      },
      "grantRole(bytes32,address)": {
        "details": "Grants `role` to `account`. If `account` had not been already granted `role`, emits a {RoleGranted} event. Requirements: - the caller must have ``role``'s admin role. May emit a {RoleGranted} event."
      },
      "hasRole(bytes32,address)": {
        "details": "Returns `true` if `account` has been granted `role`."
      },
      "renounceRole(bytes32,address)": {
        "details": "Revokes `role` from the calling account. Roles are often managed via {grantRole} and {revokeRole}: this function's purpose is to provide a mechanism for accounts to lose their privileges if they are compromised (such as when a trusted device is misplaced). If the calling account had been revoked `role`, emits a {RoleRevoked} event. Requirements: - the caller must be `callerConfirmation`. May emit a {RoleRevoked} event."
      },
      "revokeRole(bytes32,address)": {
        "details": "Revokes `role` from `account`. If `account` had been granted `role`, emits a {RoleRevoked} event. Requirements: - the caller must have ``role``'s admin role. May emit a {RoleRevoked} event."
      },
      "supportsInterface(bytes4)": {
        "details": "See {IERC165-supportsInterface}."
      }
    },
    "version": 1
  },
  "userdoc": {
    "kind": "user",
    "methods": {},
    "version": 1
  },
  "storageLayout": {
    "storage": [
      {
        "astId": 26,
        "contract": "contracts/AuctionFactory.sol:AuctionFactory",
        "label": "_roles",
        "offset": 0,
        "slot": "0",
        "type": "t_mapping(t_bytes32,t_struct(RoleData)21_storage)"
      },
      {
        "astId": 4319,
        "contract": "contracts/AuctionFactory.sol:AuctionFactory",
        "label": "proposals",
        "offset": 0,
        "slot": "1",
        "type": "t_array(t_struct(Proposal)4315_storage)dyn_storage"
      }
    ],
    "types": {
      "t_address": {
        "encoding": "inplace",
        "label": "address",
        "numberOfBytes": "20"
      },
      "t_array(t_struct(Proposal)4315_storage)dyn_storage": {
        "base": "t_struct(Proposal)4315_storage",
        "encoding": "dynamic_array",
        "label": "struct AuctionFactory.Proposal[]",
        "numberOfBytes": "32"
      },
      "t_bool": {
        "encoding": "inplace",
        "label": "bool",
        "numberOfBytes": "1"
      },
      "t_bytes32": {
        "encoding": "inplace",
        "label": "bytes32",
        "numberOfBytes": "32"
      },
      "t_enum(ProposalStatus)4301": {
        "encoding": "inplace",
        "label": "enum AuctionFactory.ProposalStatus",
        "numberOfBytes": "1"
      },
      "t_mapping(t_address,t_bool)": {
        "encoding": "mapping",
        "key": "t_address",
        "label": "mapping(address => bool)",
        "numberOfBytes": "32",
        "value": "t_bool"
      },
      "t_mapping(t_bytes32,t_struct(RoleData)21_storage)": {
        "encoding": "mapping",
        "key": "t_bytes32",
        "label": "mapping(bytes32 => struct AccessControl.RoleData)",
        "numberOfBytes": "32",
        "value": "t_struct(RoleData)21_storage"
      },
      "t_string_storage": {
        "encoding": "bytes",
        "label": "string",
        "numberOfBytes": "32"
      },
      "t_struct(Proposal)4315_storage": {
        "encoding": "inplace",
        "label": "struct AuctionFactory.Proposal",
        "members": [
          {
            "astId": 4303,
            "contract": "contracts/AuctionFactory.sol:AuctionFactory",
            "label": "proposer",
            "offset": 0,
            "slot": "0",
            "type": "t_address"
          },
          {
            "astId": 4305,
            "contract": "contracts/AuctionFactory.sol:AuctionFactory",
            "label": "metadataURI",
            "offset": 0,
            "slot": "1",
            "type": "t_string_storage"
          },
          {
            "astId": 4307,
            "contract": "contracts/AuctionFactory.sol:AuctionFactory",
            "label": "startingBid",
            "offset": 0,
            "slot": "2",
            "type": "t_uint256"
          },
          {
            "astId": 4309,
            "contract": "contracts/AuctionFactory.sol:AuctionFactory",
            "label": "durationSeconds",
            "offset": 0,
            "slot": "3",
            "type": "t_uint256"
          },
          {
            "astId": 4312,
            "contract": "contracts/AuctionFactory.sol:AuctionFactory",
            "label": "status",
            "offset": 0,
            "slot": "4",
            "type": "t_enum(ProposalStatus)4301"
          },
          {
            "astId": 4314,
            "contract": "contracts/AuctionFactory.sol:AuctionFactory",
            "label": "deployedAuctionAddress",
            "offset": 1,
            "slot": "4",
            "type": "t_address"
          }
        ],
        "numberOfBytes": "160"
      },
      "t_struct(RoleData)21_storage": {
        "encoding": "inplace",
        "label": "struct AccessControl.RoleData",
        "members": [
          {
            "astId": 18,
            "contract": "contracts/AuctionFactory.sol:AuctionFactory",
            "label": "hasRole",
            "offset": 0,
            "slot": "0",
            "type": "t_mapping(t_address,t_bool)"
          },
          {
            "astId": 20,
            "contract": "contracts/AuctionFactory.sol:AuctionFactory",
            "label": "adminRole",
            "offset": 0,
            "slot": "1",
            "type": "t_bytes32"
          }
        ],
        "numberOfBytes": "64"
      },
      "t_uint256": {
        "encoding": "inplace",
        "label": "uint256",
        "numberOfBytes": "32"
      }
    }
  }
}